{
  "contractName": "Uniswap",
  "abi": [
    {
      "inputs": [],
      "stateMutability": "nonpayable",
      "type": "constructor"
    },
    {
      "inputs": [
        {
          "internalType": "string",
          "name": "",
          "type": "string"
        }
      ],
      "name": "tokenInstanceMap",
      "outputs": [
        {
          "internalType": "contract ERC20",
          "name": "",
          "type": "address"
        }
      ],
      "stateMutability": "view",
      "type": "function",
      "constant": true
    },
    {
      "inputs": [
        {
          "internalType": "uint256",
          "name": "",
          "type": "uint256"
        }
      ],
      "name": "tokens",
      "outputs": [
        {
          "internalType": "string",
          "name": "",
          "type": "string"
        }
      ],
      "stateMutability": "view",
      "type": "function",
      "constant": true
    },
    {
      "inputs": [
        {
          "internalType": "string",
          "name": "tokenName",
          "type": "string"
        },
        {
          "internalType": "address",
          "name": "_address",
          "type": "address"
        }
      ],
      "name": "getBalance",
      "outputs": [
        {
          "internalType": "uint256",
          "name": "",
          "type": "uint256"
        }
      ],
      "stateMutability": "view",
      "type": "function",
      "constant": true
    },
    {
      "inputs": [
        {
          "internalType": "string",
          "name": "tokenName",
          "type": "string"
        }
      ],
      "name": "getName",
      "outputs": [
        {
          "internalType": "string",
          "name": "",
          "type": "string"
        }
      ],
      "stateMutability": "view",
      "type": "function",
      "constant": true
    },
    {
      "inputs": [
        {
          "internalType": "string",
          "name": "tokenName",
          "type": "string"
        }
      ],
      "name": "getTokenAddress",
      "outputs": [
        {
          "internalType": "address",
          "name": "",
          "type": "address"
        }
      ],
      "stateMutability": "view",
      "type": "function",
      "constant": true
    },
    {
      "inputs": [
        {
          "internalType": "string",
          "name": "tokenName",
          "type": "string"
        }
      ],
      "name": "swapEthToToken",
      "outputs": [
        {
          "internalType": "uint256",
          "name": "",
          "type": "uint256"
        }
      ],
      "stateMutability": "payable",
      "type": "function",
      "payable": true
    },
    {
      "inputs": [
        {
          "internalType": "string",
          "name": "tokenName",
          "type": "string"
        },
        {
          "internalType": "uint256",
          "name": "_amount",
          "type": "uint256"
        }
      ],
      "name": "swapTokenToEth",
      "outputs": [
        {
          "internalType": "uint256",
          "name": "",
          "type": "uint256"
        }
      ],
      "stateMutability": "nonpayable",
      "type": "function"
    },
    {
      "inputs": [
        {
          "internalType": "string",
          "name": "srcTokenName",
          "type": "string"
        },
        {
          "internalType": "string",
          "name": "destTokenName",
          "type": "string"
        },
        {
          "internalType": "uint256",
          "name": "_amount",
          "type": "uint256"
        }
      ],
      "name": "swapTokenToToken",
      "outputs": [],
      "stateMutability": "nonpayable",
      "type": "function"
    },
    {
      "inputs": [],
      "name": "getEthBalance",
      "outputs": [
        {
          "internalType": "uint256",
          "name": "",
          "type": "uint256"
        }
      ],
      "stateMutability": "view",
      "type": "function",
      "constant": true
    }
  ],
  "bytecode": "0x608060405260405180606001604052806040518060400160405280600581526020017f436f696e4100000000000000000000000000000000000000000000000000000081525081526020016040518060400160405280600581526020017f436f696e4200000000000000000000000000000000000000000000000000000081525081526020016040518060400160405280600581526020017f436f696e430000000000000000000000000000000000000000000000000000008152508152506000906003620000d092919062000281565b50655af3107a4000600255348015620000e857600080fd5b5060005b6000805490508110156200027a57600080828154811062000136577f4e487b7100000000000000000000000000000000000000000000000000000000600052603260045260246000fd5b90600052602060002001600083815481106200017b577f4e487b7100000000000000000000000000000000000000000000000000000000600052603260045260246000fd5b906000526020600020016040516200019390620002e8565b620001a092919062000544565b604051809103906000f080158015620001bd573d6000803e3d6000fd5b50905080600160008481548110620001fe577f4e487b7100000000000000000000000000000000000000000000000000000000600052603260045260246000fd5b906000526020600020016040516200021791906200052b565b908152602001604051809103902060006101000a81548173ffffffffffffffffffffffffffffffffffffffff021916908373ffffffffffffffffffffffffffffffffffffffff1602179055505080806200027190620005f0565b915050620000ec565b506200069c565b828054828255906000526020600020908101928215620002d5579160200282015b82811115620002d4578251829080519060200190620002c3929190620002f6565b5091602001919060010190620002a2565b5b509050620002e4919062000387565b5090565b61180e80620018bb83390190565b8280546200030490620005ba565b90600052602060002090601f01602090048101928262000328576000855562000374565b82601f106200034357805160ff191683800117855562000374565b8280016001018555821562000374579182015b828111156200037357825182559160200191906001019062000356565b5b509050620003839190620003af565b5090565b5b80821115620003ab5760008181620003a19190620003ce565b5060010162000388565b5090565b5b80821115620003ca576000816000905550600101620003b0565b5090565b508054620003dc90620005ba565b6000825580601f10620003f0575062000411565b601f016020900490600052602060002090810190620004109190620003af565b5b50565b600081546200042381620005ba565b6200042f818662000594565b945060018216600081146200044d5760018114620004605762000497565b60ff198316865260208601935062000497565b6200046b856200057f565b60005b838110156200048f578154818901526001820191506020810190506200046e565b808801955050505b50505092915050565b60008154620004af81620005ba565b620004bb8186620005a5565b94506001821660008114620004d95760018114620004eb5762000522565b60ff1983168652818601935062000522565b620004f6856200057f565b60005b838110156200051a57815481890152600182019150602081019050620004f9565b838801955050505b50505092915050565b6000620005398284620004a0565b915081905092915050565b6000604082019050818103600083015262000560818562000414565b9050818103602083015262000576818462000414565b90509392505050565b60008190508160005260206000209050919050565b600082825260208201905092915050565b600081905092915050565b6000819050919050565b60006002820490506001821680620005d357607f821691505b60208210811415620005ea57620005e96200066d565b5b50919050565b6000620005fd82620005b0565b91507fffffffffffffffffffffffffffffffffffffffffffffffffffffffffffffffff8214156200063357620006326200063e565b5b600182019050919050565b7f4e487b7100000000000000000000000000000000000000000000000000000000600052601160045260246000fd5b7f4e487b7100000000000000000000000000000000000000000000000000000000600052602260045260246000fd5b61120f80620006ac6000396000f3fe6080604052600436106100865760003560e01c806389f4b3171161005957806389f4b31714610160578063a93325ed1461019d578063bf015aae146101da578063c409123614610203578063db6f63ee1461024057610086565b80634f64b2be1461008b57806363fcf7c5146100c85780636932cf81146100f857806370ed0ada14610135575b600080fd5b34801561009757600080fd5b506100b260048036038101906100ad9190610ca1565b61027d565b6040516100bf9190610e77565b60405180910390f35b6100e260048036038101906100dd9190610af8565b610329565b6040516100ef9190610eb9565b60405180910390f35b34801561010457600080fd5b5061011f600480360381019061011a9190610af8565b610432565b60405161012c9190610e77565b60405180910390f35b34801561014157600080fd5b5061014a6104fc565b6040516101579190610eb9565b60405180910390f35b34801561016c57600080fd5b5061018760048036038101906101829190610b7a565b610504565b6040516101949190610eb9565b60405180910390f35b3480156101a957600080fd5b506101c460048036038101906101bf9190610af8565b6105d5565b6040516101d19190610e5c565b60405180910390f35b3480156101e657600080fd5b5061020160048036038101906101fc9190610bce565b61061e565b005b34801561020f57600080fd5b5061022a60048036038101906102259190610af8565b6107cd565b6040516102379190610de1565b60405180910390f35b34801561024c57600080fd5b5061026760048036038101906102629190610c4d565b610815565b6040516102749190610eb9565b60405180910390f35b6000818154811061028d57600080fd5b9060005260206000200160009150905080546102a890611095565b80601f01602080910402602001604051908101604052809291908181526020018280546102d490611095565b80156103215780601f106102f657610100808354040283529160200191610321565b820191906000526020600020905b81548152906001019060200180831161030457829003601f168201915b505050505081565b6000803490506000670de0b6b3a7640000600254836103489190610f5c565b6103529190610f8d565b90506001846040516103649190610dca565b908152602001604051809103902060009054906101000a900473ffffffffffffffffffffffffffffffffffffffff1673ffffffffffffffffffffffffffffffffffffffff1663a9059cbb33836040518363ffffffff1660e01b81526004016103cd929190610e33565b602060405180830381600087803b1580156103e757600080fd5b505af11580156103fb573d6000803e3d6000fd5b505050506040513d601f19601f8201168201806040525081019061041f9190610acf565b61042857600080fd5b8092505050919050565b60606001826040516104449190610dca565b908152602001604051809103902060009054906101000a900473ffffffffffffffffffffffffffffffffffffffff1673ffffffffffffffffffffffffffffffffffffffff166306fdde036040518163ffffffff1660e01b815260040160006040518083038186803b1580156104b857600080fd5b505afa1580156104cc573d6000803e3d6000fd5b505050506040513d6000823e3d601f19601f820116820180604052508101906104f59190610b39565b9050919050565b600047905090565b60006001836040516105169190610dca565b908152602001604051809103902060009054906101000a900473ffffffffffffffffffffffffffffffffffffffff1673ffffffffffffffffffffffffffffffffffffffff166370a08231836040518263ffffffff1660e01b815260040161057d9190610de1565b60206040518083038186803b15801561059557600080fd5b505afa1580156105a9573d6000803e3d6000fd5b505050506040513d601f19601f820116820180604052508101906105cd9190610cca565b905092915050565b6001818051602081018201805184825260208301602085012081835280955050505050506000915054906101000a900473ffffffffffffffffffffffffffffffffffffffff1681565b60018360405161062e9190610dca565b908152602001604051809103902060009054906101000a900473ffffffffffffffffffffffffffffffffffffffff1673ffffffffffffffffffffffffffffffffffffffff166323b872dd3330846040518463ffffffff1660e01b815260040161069993929190610dfc565b602060405180830381600087803b1580156106b357600080fd5b505af11580156106c7573d6000803e3d6000fd5b505050506040513d601f19601f820116820180604052508101906106eb9190610acf565b6106f457600080fd5b6001826040516107049190610dca565b908152602001604051809103902060009054906101000a900473ffffffffffffffffffffffffffffffffffffffff1673ffffffffffffffffffffffffffffffffffffffff1663a9059cbb33836040518363ffffffff1660e01b815260040161076d929190610e33565b602060405180830381600087803b15801561078757600080fd5b505af115801561079b573d6000803e3d6000fd5b505050506040513d601f19601f820116820180604052508101906107bf9190610acf565b6107c857600080fd5b505050565b60006001826040516107df9190610dca565b908152602001604051809103902060009054906101000a900473ffffffffffffffffffffffffffffffffffffffff169050919050565b600080670de0b6b3a76400008361082c9190610f5c565b905060006002548261083e9190610f8d565b905080471015610883576040517f08c379a000000000000000000000000000000000000000000000000000000000815260040161087a90610e99565b60405180910390fd5b3373ffffffffffffffffffffffffffffffffffffffff166108fc829081150290604051600060405180830381858888f193505050501580156108c9573d6000803e3d6000fd5b506001856040516108da9190610dca565b908152602001604051809103902060009054906101000a900473ffffffffffffffffffffffffffffffffffffffff1673ffffffffffffffffffffffffffffffffffffffff166323b872dd3330876040518463ffffffff1660e01b815260040161094593929190610dfc565b602060405180830381600087803b15801561095f57600080fd5b505af1158015610973573d6000803e3d6000fd5b505050506040513d601f19601f820116820180604052508101906109979190610acf565b6109a057600080fd5b809250505092915050565b60006109be6109b984610f05565b610ed4565b9050828152602081018484840111156109d657600080fd5b6109e1848285611053565b509392505050565b60006109fc6109f784610f05565b610ed4565b905082815260208101848484011115610a1457600080fd5b610a1f848285611062565b509392505050565b600081359050610a3681611194565b92915050565b600081519050610a4b816111ab565b92915050565b600082601f830112610a6257600080fd5b8135610a728482602086016109ab565b91505092915050565b600082601f830112610a8c57600080fd5b8151610a9c8482602086016109e9565b91505092915050565b600081359050610ab4816111c2565b92915050565b600081519050610ac9816111c2565b92915050565b600060208284031215610ae157600080fd5b6000610aef84828501610a3c565b91505092915050565b600060208284031215610b0a57600080fd5b600082013567ffffffffffffffff811115610b2457600080fd5b610b3084828501610a51565b91505092915050565b600060208284031215610b4b57600080fd5b600082015167ffffffffffffffff811115610b6557600080fd5b610b7184828501610a7b565b91505092915050565b60008060408385031215610b8d57600080fd5b600083013567ffffffffffffffff811115610ba757600080fd5b610bb385828601610a51565b9250506020610bc485828601610a27565b9150509250929050565b600080600060608486031215610be357600080fd5b600084013567ffffffffffffffff811115610bfd57600080fd5b610c0986828701610a51565b935050602084013567ffffffffffffffff811115610c2657600080fd5b610c3286828701610a51565b9250506040610c4386828701610aa5565b9150509250925092565b60008060408385031215610c6057600080fd5b600083013567ffffffffffffffff811115610c7a57600080fd5b610c8685828601610a51565b9250506020610c9785828601610aa5565b9150509250929050565b600060208284031215610cb357600080fd5b6000610cc184828501610aa5565b91505092915050565b600060208284031215610cdc57600080fd5b6000610cea84828501610aba565b91505092915050565b610cfc81610fe7565b82525050565b610d0b8161102f565b82525050565b6000610d1c82610f35565b610d268185610f40565b9350610d36818560208601611062565b610d3f81611183565b840191505092915050565b6000610d5582610f35565b610d5f8185610f51565b9350610d6f818560208601611062565b80840191505092915050565b6000610d88601d83610f40565b91507f4465782069732072756e6e696e67206c6f77206f6e2062616c616e63650000006000830152602082019050919050565b610dc481611025565b82525050565b6000610dd68284610d4a565b915081905092915050565b6000602082019050610df66000830184610cf3565b92915050565b6000606082019050610e116000830186610cf3565b610e1e6020830185610cf3565b610e2b6040830184610dbb565b949350505050565b6000604082019050610e486000830185610cf3565b610e556020830184610dbb565b9392505050565b6000602082019050610e716000830184610d02565b92915050565b60006020820190508181036000830152610e918184610d11565b905092915050565b60006020820190508181036000830152610eb281610d7b565b9050919050565b6000602082019050610ece6000830184610dbb565b92915050565b6000604051905081810181811067ffffffffffffffff82111715610efb57610efa611154565b5b8060405250919050565b600067ffffffffffffffff821115610f2057610f1f611154565b5b601f19601f8301169050602081019050919050565b600081519050919050565b600082825260208201905092915050565b600081905092915050565b6000610f6782611025565b9150610f7283611025565b925082610f8257610f816110f6565b5b828204905092915050565b6000610f9882611025565b9150610fa383611025565b9250817fffffffffffffffffffffffffffffffffffffffffffffffffffffffffffffffff0483118215151615610fdc57610fdb6110c7565b5b828202905092915050565b6000610ff282611005565b9050919050565b60008115159050919050565b600073ffffffffffffffffffffffffffffffffffffffff82169050919050565b6000819050919050565b600061103a82611041565b9050919050565b600061104c82611005565b9050919050565b82818337600083830152505050565b60005b83811015611080578082015181840152602081019050611065565b8381111561108f576000848401525b50505050565b600060028204905060018216806110ad57607f821691505b602082108114156110c1576110c0611125565b5b50919050565b7f4e487b7100000000000000000000000000000000000000000000000000000000600052601160045260246000fd5b7f4e487b7100000000000000000000000000000000000000000000000000000000600052601260045260246000fd5b7f4e487b7100000000000000000000000000000000000000000000000000000000600052602260045260246000fd5b7f4e487b7100000000000000000000000000000000000000000000000000000000600052604160045260246000fd5b6000601f19601f8301169050919050565b61119d81610fe7565b81146111a857600080fd5b50565b6111b481610ff9565b81146111bf57600080fd5b50565b6111cb81611025565b81146111d657600080fd5b5056fea26469706673582212201da20159227679e162759e3f0c4398751bf2460b1c2d1cf3adc1be955cbcc3a064736f6c6343000800003360806040523480156200001157600080fd5b506040516200180e3803806200180e83398181016040528101906200003791906200032b565b818181600390805190602001906200005192919062000209565b5080600490805190602001906200006a92919062000209565b505050620000893369021e19e0c9bab24000006200009160201b60201c565b505062000608565b600073ffffffffffffffffffffffffffffffffffffffff168273ffffffffffffffffffffffffffffffffffffffff16141562000104576040517f08c379a0000000000000000000000000000000000000000000000000000000008152600401620000fb90620003f1565b60405180910390fd5b6200011860008383620001ff60201b60201c565b80600260008282546200012c9190620004a8565b92505081905550806000808473ffffffffffffffffffffffffffffffffffffffff1673ffffffffffffffffffffffffffffffffffffffff168152602001908152602001600020600082825401925050819055508173ffffffffffffffffffffffffffffffffffffffff16600073ffffffffffffffffffffffffffffffffffffffff167fddf252ad1be2c89b69c2b068fc378daa952ba7f163c4a11628f55a4df523b3ef83604051620001df919062000413565b60405180910390a3620001fb600083836200020460201b60201c565b5050565b505050565b505050565b828054620002179062000545565b90600052602060002090601f0160209004810192826200023b576000855562000287565b82601f106200025657805160ff191683800117855562000287565b8280016001018555821562000287579182015b828111156200028657825182559160200191906001019062000269565b5b5090506200029691906200029a565b5090565b5b80821115620002b55760008160009055506001016200029b565b5090565b6000620002d0620002ca8462000464565b62000430565b905082815260208101848484011115620002e957600080fd5b620002f68482856200050f565b509392505050565b600082601f8301126200031057600080fd5b815162000322848260208601620002b9565b91505092915050565b600080604083850312156200033f57600080fd5b600083015167ffffffffffffffff8111156200035a57600080fd5b6200036885828601620002fe565b925050602083015167ffffffffffffffff8111156200038657600080fd5b6200039485828601620002fe565b9150509250929050565b6000620003ad601f8362000497565b91507f45524332303a206d696e7420746f20746865207a65726f2061646472657373006000830152602082019050919050565b620003eb8162000505565b82525050565b600060208201905081810360008301526200040c816200039e565b9050919050565b60006020820190506200042a6000830184620003e0565b92915050565b6000604051905081810181811067ffffffffffffffff821117156200045a5762000459620005d9565b5b8060405250919050565b600067ffffffffffffffff821115620004825762000481620005d9565b5b601f19601f8301169050602081019050919050565b600082825260208201905092915050565b6000620004b58262000505565b9150620004c28362000505565b9250827fffffffffffffffffffffffffffffffffffffffffffffffffffffffffffffffff03821115620004fa57620004f96200057b565b5b828201905092915050565b6000819050919050565b60005b838110156200052f57808201518184015260208101905062000512565b838111156200053f576000848401525b50505050565b600060028204905060018216806200055e57607f821691505b60208210811415620005755762000574620005aa565b5b50919050565b7f4e487b7100000000000000000000000000000000000000000000000000000000600052601160045260246000fd5b7f4e487b7100000000000000000000000000000000000000000000000000000000600052602260045260246000fd5b7f4e487b7100000000000000000000000000000000000000000000000000000000600052604160045260246000fd5b6111f680620006186000396000f3fe608060405234801561001057600080fd5b50600436106100a95760003560e01c80633950935111610071578063395093511461016857806370a082311461019857806395d89b41146101c8578063a457c2d7146101e6578063a9059cbb14610216578063dd62ed3e14610246576100a9565b806306fdde03146100ae578063095ea7b3146100cc57806318160ddd146100fc57806323b872dd1461011a578063313ce5671461014a575b600080fd5b6100b6610276565b6040516100c39190610ebf565b60405180910390f35b6100e660048036038101906100e19190610b5e565b610308565b6040516100f39190610ea4565b60405180910390f35b61010461032b565b6040516101119190610fc1565b60405180910390f35b610134600480360381019061012f9190610b0f565b610335565b6040516101419190610ea4565b60405180910390f35b610152610364565b60405161015f9190610fdc565b60405180910390f35b610182600480360381019061017d9190610b5e565b61036d565b60405161018f9190610ea4565b60405180910390f35b6101b260048036038101906101ad9190610aaa565b6103a4565b6040516101bf9190610fc1565b60405180910390f35b6101d06103ec565b6040516101dd9190610ebf565b60405180910390f35b61020060048036038101906101fb9190610b5e565b61047e565b60405161020d9190610ea4565b60405180910390f35b610230600480360381019061022b9190610b5e565b6104f5565b60405161023d9190610ea4565b60405180910390f35b610260600480360381019061025b9190610ad3565b610518565b60405161026d9190610fc1565b60405180910390f35b606060038054610285906110f1565b80601f01602080910402602001604051908101604052809291908181526020018280546102b1906110f1565b80156102fe5780601f106102d3576101008083540402835291602001916102fe565b820191906000526020600020905b8154815290600101906020018083116102e157829003601f168201915b5050505050905090565b60008061031361059f565b90506103208185856105a7565b600191505092915050565b6000600254905090565b60008061034061059f565b905061034d858285610772565b6103588585856107fe565b60019150509392505050565b60006012905090565b60008061037861059f565b905061039981858561038a8589610518565b6103949190611013565b6105a7565b600191505092915050565b60008060008373ffffffffffffffffffffffffffffffffffffffff1673ffffffffffffffffffffffffffffffffffffffff168152602001908152602001600020549050919050565b6060600480546103fb906110f1565b80601f0160208091040260200160405190810160405280929190818152602001828054610427906110f1565b80156104745780601f1061044957610100808354040283529160200191610474565b820191906000526020600020905b81548152906001019060200180831161045757829003601f168201915b5050505050905090565b60008061048961059f565b905060006104978286610518565b9050838110156104dc576040517f08c379a00000000000000000000000000000000000000000000000000000000081526004016104d390610fa1565b60405180910390fd5b6104e982868684036105a7565b60019250505092915050565b60008061050061059f565b905061050d8185856107fe565b600191505092915050565b6000600160008473ffffffffffffffffffffffffffffffffffffffff1673ffffffffffffffffffffffffffffffffffffffff16815260200190815260200160002060008373ffffffffffffffffffffffffffffffffffffffff1673ffffffffffffffffffffffffffffffffffffffff16815260200190815260200160002054905092915050565b600033905090565b600073ffffffffffffffffffffffffffffffffffffffff168373ffffffffffffffffffffffffffffffffffffffff161415610617576040517f08c379a000000000000000000000000000000000000000000000000000000000815260040161060e90610f81565b60405180910390fd5b600073ffffffffffffffffffffffffffffffffffffffff168273ffffffffffffffffffffffffffffffffffffffff161415610687576040517f08c379a000000000000000000000000000000000000000000000000000000000815260040161067e90610f01565b60405180910390fd5b80600160008573ffffffffffffffffffffffffffffffffffffffff1673ffffffffffffffffffffffffffffffffffffffff16815260200190815260200160002060008473ffffffffffffffffffffffffffffffffffffffff1673ffffffffffffffffffffffffffffffffffffffff168152602001908152602001600020819055508173ffffffffffffffffffffffffffffffffffffffff168373ffffffffffffffffffffffffffffffffffffffff167f8c5be1e5ebec7d5bd14f71427d1e84f3dd0314c0f7b2291e5b200ac8c7c3b925836040516107659190610fc1565b60405180910390a3505050565b600061077e8484610518565b90507fffffffffffffffffffffffffffffffffffffffffffffffffffffffffffffffff81146107f857818110156107ea576040517f08c379a00000000000000000000000000000000000000000000000000000000081526004016107e190610f21565b60405180910390fd5b6107f784848484036105a7565b5b50505050565b600073ffffffffffffffffffffffffffffffffffffffff168373ffffffffffffffffffffffffffffffffffffffff16141561086e576040517f08c379a000000000000000000000000000000000000000000000000000000000815260040161086590610f61565b60405180910390fd5b600073ffffffffffffffffffffffffffffffffffffffff168273ffffffffffffffffffffffffffffffffffffffff1614156108de576040517f08c379a00000000000000000000000000000000000000000000000000000000081526004016108d590610ee1565b60405180910390fd5b6108e9838383610a76565b60008060008573ffffffffffffffffffffffffffffffffffffffff1673ffffffffffffffffffffffffffffffffffffffff1681526020019081526020016000205490508181101561096f576040517f08c379a000000000000000000000000000000000000000000000000000000000815260040161096690610f41565b60405180910390fd5b8181036000808673ffffffffffffffffffffffffffffffffffffffff1673ffffffffffffffffffffffffffffffffffffffff16815260200190815260200160002081905550816000808573ffffffffffffffffffffffffffffffffffffffff1673ffffffffffffffffffffffffffffffffffffffff168152602001908152602001600020600082825401925050819055508273ffffffffffffffffffffffffffffffffffffffff168473ffffffffffffffffffffffffffffffffffffffff167fddf252ad1be2c89b69c2b068fc378daa952ba7f163c4a11628f55a4df523b3ef84604051610a5d9190610fc1565b60405180910390a3610a70848484610a7b565b50505050565b505050565b505050565b600081359050610a8f81611192565b92915050565b600081359050610aa4816111a9565b92915050565b600060208284031215610abc57600080fd5b6000610aca84828501610a80565b91505092915050565b60008060408385031215610ae657600080fd5b6000610af485828601610a80565b9250506020610b0585828601610a80565b9150509250929050565b600080600060608486031215610b2457600080fd5b6000610b3286828701610a80565b9350506020610b4386828701610a80565b9250506040610b5486828701610a95565b9150509250925092565b60008060408385031215610b7157600080fd5b6000610b7f85828601610a80565b9250506020610b9085828601610a95565b9150509250929050565b610ba38161107b565b82525050565b6000610bb482610ff7565b610bbe8185611002565b9350610bce8185602086016110be565b610bd781611181565b840191505092915050565b6000610bef602383611002565b91507f45524332303a207472616e7366657220746f20746865207a65726f206164647260008301527f65737300000000000000000000000000000000000000000000000000000000006020830152604082019050919050565b6000610c55602283611002565b91507f45524332303a20617070726f766520746f20746865207a65726f20616464726560008301527f73730000000000000000000000000000000000000000000000000000000000006020830152604082019050919050565b6000610cbb601d83611002565b91507f45524332303a20696e73756666696369656e7420616c6c6f77616e63650000006000830152602082019050919050565b6000610cfb602683611002565b91507f45524332303a207472616e7366657220616d6f756e742065786365656473206260008301527f616c616e636500000000000000000000000000000000000000000000000000006020830152604082019050919050565b6000610d61602583611002565b91507f45524332303a207472616e736665722066726f6d20746865207a65726f20616460008301527f64726573730000000000000000000000000000000000000000000000000000006020830152604082019050919050565b6000610dc7602483611002565b91507f45524332303a20617070726f76652066726f6d20746865207a65726f2061646460008301527f72657373000000000000000000000000000000000000000000000000000000006020830152604082019050919050565b6000610e2d602583611002565b91507f45524332303a2064656372656173656420616c6c6f77616e63652062656c6f7760008301527f207a65726f0000000000000000000000000000000000000000000000000000006020830152604082019050919050565b610e8f816110a7565b82525050565b610e9e816110b1565b82525050565b6000602082019050610eb96000830184610b9a565b92915050565b60006020820190508181036000830152610ed98184610ba9565b905092915050565b60006020820190508181036000830152610efa81610be2565b9050919050565b60006020820190508181036000830152610f1a81610c48565b9050919050565b60006020820190508181036000830152610f3a81610cae565b9050919050565b60006020820190508181036000830152610f5a81610cee565b9050919050565b60006020820190508181036000830152610f7a81610d54565b9050919050565b60006020820190508181036000830152610f9a81610dba565b9050919050565b60006020820190508181036000830152610fba81610e20565b9050919050565b6000602082019050610fd66000830184610e86565b92915050565b6000602082019050610ff16000830184610e95565b92915050565b600081519050919050565b600082825260208201905092915050565b600061101e826110a7565b9150611029836110a7565b9250827fffffffffffffffffffffffffffffffffffffffffffffffffffffffffffffffff0382111561105e5761105d611123565b5b828201905092915050565b600061107482611087565b9050919050565b60008115159050919050565b600073ffffffffffffffffffffffffffffffffffffffff82169050919050565b6000819050919050565b600060ff82169050919050565b60005b838110156110dc5780820151818401526020810190506110c1565b838111156110eb576000848401525b50505050565b6000600282049050600182168061110957607f821691505b6020821081141561111d5761111c611152565b5b50919050565b7f4e487b7100000000000000000000000000000000000000000000000000000000600052601160045260246000fd5b7f4e487b7100000000000000000000000000000000000000000000000000000000600052602260045260246000fd5b6000601f19601f8301169050919050565b61119b81611069565b81146111a657600080fd5b50565b6111b2816110a7565b81146111bd57600080fd5b5056fea264697066735822122074394ee67f4e7df9ffcd482c14adc474a86c209b94a664b1a6e9bd6e34c431d664736f6c63430008000033",
  "immutableReferences": {},
  "source": "// SPDX-License-Identifier: MIT\r\n\r\npragma solidity ^0.8.0;\r\nimport \"@openzeppelin/contracts/token/ERC20/ERC20.sol\";\r\n\r\ncontract CustomToken is ERC20 {\r\n    constructor(string memory name, string memory symbol) ERC20(name, symbol) {\r\n        _mint(msg.sender, 10000 * 10**18);\r\n    }\r\n}\r\n\r\ncontract Uniswap {\r\n    string[] public tokens = [\"CoinA\", \"CoinB\", \"CoinC\"];\r\n    mapping(string => ERC20) public tokenInstanceMap;\r\n    uint ethValue = 100000000000000;\r\n\r\n    constructor() {\r\n        for (uint256 i = 0; i < tokens.length; i++) {\r\n            CustomToken token = new CustomToken(tokens[i], tokens[i]);\r\n            tokenInstanceMap[tokens[i]] = token;\r\n        }\r\n    }\r\n\r\n    function getBalance(string memory tokenName, address _address) public view returns(uint) {\r\n      return tokenInstanceMap[tokenName].balanceOf(_address);\r\n    }\r\n\r\n    function getName(string memory tokenName) public view returns(string memory) {\r\n      return tokenInstanceMap[tokenName].name();\r\n    }\r\n\r\n    function getTokenAddress(string memory tokenName) public view returns(address) {\r\n      return address(tokenInstanceMap[tokenName]);\r\n    }\r\n\r\n    function swapEthToToken(string memory tokenName) public payable returns(uint){\r\n      uint inputValue = msg.value;\r\n      uint outputValue = (inputValue / ethValue) * 10 ** 18;\r\n      require(tokenInstanceMap[tokenName].transfer(msg.sender, outputValue));\r\n      return outputValue;\r\n    }\r\n\r\n    function swapTokenToEth(string memory tokenName, uint _amount) public returns(uint) {\r\n      uint exactAmount = _amount / 10 ** 18;\r\n      uint ethToBeTransferred = exactAmount * ethValue;\r\n      require(address(this).balance >= ethToBeTransferred, \"Dex is running low on balance\");\r\n      payable(msg.sender).transfer(ethToBeTransferred);\r\n      require(tokenInstanceMap[tokenName].transferFrom(msg.sender, address(this), _amount));\r\n      return ethToBeTransferred;\r\n    }\r\n\r\n    function swapTokenToToken(string memory srcTokenName, string memory destTokenName, uint _amount) public {\r\n      require(tokenInstanceMap[srcTokenName].transferFrom(msg.sender, address(this), _amount));\r\n      require(tokenInstanceMap[destTokenName].transfer(msg.sender, _amount));\r\n    }\r\n\r\n    function getEthBalance() public view returns(uint) {\r\n      return address(this).balance;\r\n    }\r\n}\r\n",
  "sourcePath": "e:\\RealApp\\uniswap\\uniswap-app\\contracts\\Uniswap.sol",
  "compiler": {
    "name": "solc",
    "version": "0.8.0+commit.c7dfd78e.Emscripten.clang"
  },
  "schemaVersion": "3.4.10",
  "updatedAt": "2022-11-20T16:51:50.474Z",
  "networkType": "ethereum",
  "devdoc": {
    "kind": "dev",
    "methods": {},
    "version": 1
  },
  "userdoc": {
    "kind": "user",
    "methods": {},
    "version": 1
  }
}